:020000040000FA
:020000001028C6
:040002000034003492
:10002000831607309F000030850086008700880017
:10003000890083120030A700A600073089008316CC
:10004000003085008312A60A0319A70A2708850035
:10005000260886008316FF30870088008312080870
:10006000A1000708A0008316FF308500003087003C
:10007000880083122008F039003A03196328103AE7
:1000800003196528303A03198A28103A0319AF2852
:10009000703A0319D428103A0319F928303A031991
:1000A0001E29103A03195029F03A03196929103A08
:1000B00003199129303A03199229103A0319932907
:1000C000703A0319AA2900001F2805308900210869
:1000D000F039A500A50E250887000508A400A40E88
:1000E00021080F3987000508860024088606073096
:1000F000880001308900FC30A305851E2314051FEC
:10010000A31420080F398700003089000000073051
:1001100089001F28053089002108F039A500A50EA7
:10012000250887000508A400A40E21080F398700C0
:1001300005088600240886060630880001308900FC
:10014000FC30A305851E2314051FA31420080F39B6
:100150008700003089000000073089001F28053023
:1001600089002108F039A500A50E2508870005089B
:10017000A400A40E21080F3987000716871205086E
:100180008600240886060030880001308900FD3092
:10019000A305051FA31420080F398700003089002C
:1001A0000000073089001F28053089002108F03938
:1001B000A500A50E250887000508A400A40E2108A7
:1001C0000F3987000716871205088600240886065F
:1001D0000130880001308900FD30A305051FA314FC
:1001E00020080F398700003089000000073089009F
:1001F0001F28053089002108F039A500A50E250823
:1002000087000508A400A40E21080F3987000716EF
:10021000871205088600240886060230880001300F
:100220008900FD30A305051FA31420080F3987009E
:10023000003089000000073089001F280530890040
:10024000A11B392921080F39870005088600860E71
:100250000330880001308900FE30A305851E231479
:1002600020080F398700003089000000073089001E
:100270001F2821080F39870005088600860E0430E4
:10028000880001308900FE30A305851E2314200854
:100290000F398700003089000000073089001F28CF
:1002A0000530890021080F39870005088600860E71
:1002B0000530880001308900FD30A305051FA31417
:1002C00020080F39870000308900000007308900BE
:1002D0001F28A11B7C29831600308500831221086A
:1002E0000F39850020080F398700071287128316FF
:1002F000FF30850083121F2821080F398700050869
:10030000A40083160030850083122408850020088D
:100310000F398700071287128316FF30850083127A
:100320001F281F281F280530890021080339A40031
:10033000A11BA02920080F398700051EA6291F2808
:1003400020080F398700051AA6291F28A60A0319B5
:10035000A70A1F28A019B22920080739A7002108D9
:10036000A600262821080F39870005080739A700AD
:100370000000A10A21080F3987000508A600A60E73
:100380000000A10A21080F3987000508A6062628C3
:02400E00723FFF
:00000001FF
