:020000040000FA
:020000001028C6
:040002000034003492
:10002000831607309F00FF30850000308600870070
:1000300083120030A4001D28A40A26222008F039CB
:10004000003A03194D28103A03194F28303A031982
:100050006A28103A03198528703A03199E28103A25
:100060000319B728303A0319D028103A0319FC288D
:10007000F03A03190F29103A03192929303A0319C4
:100080004B29103A03196D29703A03197D29103A4A
:1000900003198C29303A03199D2900001C282108D6
:1000A000F039A600A60E0E228600860E21080F3912
:1000B000A6000E22860607308700FC30A205851EAA
:1000C0002214051FA21420080F39A6000508A50058
:1000D00000221C282108F039A600A60E0E22860058
:1000E000860E21080F39A6000E22860606308700EC
:1000F000FC30A205851E2214051FA21420080F390A
:10010000A6000508A50000221C282108F039A60039
:10011000A60E0E228600860E21080F39A6000E229A
:10012000860600308700FD30A205051FA2142008B6
:100130000F39A6000508A50000221C282108F03967
:10014000A600A60E0E228600860E21080F39A600F4
:100150000E22860601308700FD30A205051FA2147D
:1001600020080F39A6000508A50000221C28210838
:10017000F039A600A60E0E228600860E21080F3941
:10018000A6000E22860602308700FD30A205051F5C
:10019000A21420080F39A6000508A50000221C287B
:1001A000A11BE62821080F39A600A60E0E22860004
:1001B000860E03308800FE30A205851E221420081A
:1001C0000F39A6000508A50000221C2821080F39B8
:1001D000A600A60E0E228600860E0430880001308E
:1001E0008900FE30A205851E221420080F39A600C2
:1001F0000508A50000221C2821080F39A6000E22A0
:100200008600860E05308800FD30A205051FA21469
:1002100020080F39A6000508A50000221C28FD3083
:10022000A205A11B1D2921080F39A500031DA21439
:1002300020080F39A60000221C2821080F39A6002B
:100240000E22A500031DA21420080F39A6000022CB
:100250001C28FD30A205A11B38292108A6000E226A
:10026000031DA214A50020080F39A60000221C2897
:1002700021080F39A6000E22A700A70EA60A0E22FB
:100280002706A6000E22031DA214A50020080F3980
:10029000A60000221C28FD30A205A11B5A29200817
:1002A0000F39A6000E22A500031DA2142108A600E6
:1002B00000221C2820080F39A6000E22A500031DCD
:1002C000A21421080F39A6000E22A700A70EA60A25
:1002D0000E222706A60000221C2821080339A900A7
:1002E00020080F39A6000E22A800A11B7A29A81CFD
:1002F000A40A1C28A818A40A1C28A01982292108CD
:10030000A4001D2821080F39A6000E22A400A40E67
:10031000A60A0E22A4061D28240AAA00A0199329C1
:100320002108A4001D2821080F39A6000E22A400D0
:10033000A40EA60A0E22A4061D282A08A4001D2821
:100400002308003A0319192AA0302607831684000E
:100410008312250883168000831208002308003AFF
:100420000319202AA03026078316840000088312AF
:1004300008008316FF308800831225088800080012
:100440008316FF3088008312080808000310240D6B
:10045000031783128D0083168C130C1483120C085F
:100460000313A00003178D0A83168C130C14831238
:080470000C080313A1000800B1
:02400E00723FFF
:00000001FF
