:020000040000FA
:020000001028C6
:040002000034003492
:10002000831607309F00FF30850000308600870070
:1000300083120030A3001D28A30A11222008F039E2
:10004000003A03194728103A03194928303A03198E
:100050006428103A03197F28703A03199828103A37
:100060000319B128303A0319CA28103A0319F6289F
:10007000F03A03190929103A03192329303A0319D0
:100080004529103A03196729703A031977290000A6
:100090001C282108F039A500A50E0A228600860E2C
:1000A00021080F39A5000A22860607308700FC3098
:1000B000A205851E2214051FA21420080F39A500D1
:1000C0000508A40000221C282108F039A500A50E6F
:1000D0000A228600860E21080F39A5000A2286060C
:1000E00006308700FC30A205851E2214051FA214CD
:1000F00020080F39A5000508A40000221C282108AB
:10010000F039A500A50E0A228600860E21080F39B7
:10011000A5000A22860600308700FD30A205051FD3
:10012000A21420080F39A5000508A40000221C28ED
:100130002108F039A500A50E0A228600860E2108A6
:100140000F39A5000A22860601308700FD30A2057E
:10015000051FA21420080F39A5000508A4000022DD
:100160001C282108F039A500A50E0A228600860E5B
:1001700021080F39A5000A22860602308700FD30CB
:10018000A205051FA21420080F39A5000508A40028
:1001900000221C28A11BE02821080F39A500A50E6C
:1001A0000A228600860E03308800FE30A205851ED6
:1001B000221420080F39A5000508A40000221C28DD
:1001C00021080F39A500A50E0A228600860E0430EC
:1001D000880001308900FE30A205851E2214200807
:1001E0000F39A5000508A40000221C2821080F399A
:1001F000A5000A228600860E05308800FD30A20583
:10020000051FA21420080F39A5000508A40000222C
:100210001C28FD30A205A11B172921080F39A400B5
:10022000031DA21420080F39A50000221C28210854
:100230000F39A5000A22A400031DA21420080F39BB
:10024000A50000221C28FD30A205A11B322921088F
:10025000A5000A22031DA214A40020080F39A5003E
:1002600000221C2821080F39A5000A22A600A60E8C
:10027000A50A0A222606A5000A22031DA214A4002C
:1002800020080F39A50000221C28FD30A205A11B63
:10029000542920080F39A5000A22A400031DA21426
:1002A0002108A50000221C2820080F39A5000A22D9
:1002B000A400031DA21421080F39A5000A22A600DC
:1002C000A60EA50A0A222606A50000221C2821083F
:1002D0000339A80020080F39A5000A22A700A11B96
:1002E0007429271CA30A1C282718A30A1C28A01954
:1002F0007C292108A3001D2821080F39A5000A2206
:0C030000A300A30EA50A0A22A3061D28D4
:10040000A0302507831684008312240883168000F9
:1004100083120800A0302507831684000008831289
:1004200008000310230D031783128D0083168C130D
:100430000C1483120C080313A00003178D0A8316F3
:0E0440008C130C1483120C080313A100080087
:02400E00723FFF
:00000001FF
