:020000040000FA
:020000001028C6
:040002000034003492
:10002000831607309F00FF30850000308600870070
:1000300083120030A3001D28A30A11222008F039E2
:10004000003A03194D28103A03194F28303A031982
:100050006A28103A03198528703A03199E28103A25
:100060000319B728303A0319D028103A0319FC288D
:10007000F03A03190F29103A03192929303A0319C4
:100080004B29103A03196D29703A03197D29103A4A
:1000900003198C29303A03199D2900001C282108D6
:1000A000F039A500A50E0A228600860E21080F3918
:1000B000A5000A22860607308700FC30A205851EAF
:1000C0002214051FA21420080F39A5000508A4005A
:1000D00000221C282108F039A500A50E0A2286005E
:1000E000860E21080F39A5000A22860606308700F1
:1000F000FC30A205851E2214051FA21420080F390A
:10010000A5000508A40000221C282108F039A5003C
:10011000A50E0A228600860E21080F39A5000A22A4
:10012000860600308700FD30A205051FA2142008B6
:100130000F39A5000508A40000221C282108F03969
:10014000A500A50E0A228600860E21080F39A500FB
:100150000A22860601308700FD30A205051FA21481
:1001600020080F39A5000508A40000221C2821083A
:10017000F039A500A50E0A228600860E21080F3947
:10018000A5000A22860602308700FD30A205051F61
:10019000A21420080F39A5000508A40000221C287D
:1001A000A11BE62821080F39A500A50E0A2286000A
:1001B000860E03308800FE30A205851E221420081A
:1001C0000F39A5000508A40000221C2821080F39BA
:1001D000A500A50E0A228600860E04308800013094
:1001E0008900FE30A205851E221420080F39A500C3
:1001F0000508A40000221C2821080F39A5000A22A6
:100200008600860E05308800FD30A205051FA21469
:1002100020080F39A5000508A40000221C28FD3085
:10022000A205A11B1D2921080F39A400031DA2143A
:1002300020080F39A50000221C2821080F39A5002D
:100240000A22A400031DA21420080F39A5000022D1
:100250001C28FD30A205A11B38292108A5000A226F
:10026000031DA214A40020080F39A50000221C2899
:1002700021080F39A5000A22A600A60EA50A0A2207
:100280002606A5000A22031DA214A40020080F3987
:10029000A50000221C28FD30A205A11B5A29200818
:1002A0000F39A5000A22A400031DA2142108A500ED
:1002B00000221C2820080F39A5000A22A400031DD3
:1002C000A21421080F39A5000A22A600A60EA50A2D
:1002D0000A222606A50000221C2821080339A800AE
:1002E00020080F39A5000A22A700A11B7A29271C84
:1002F000A30A1C282718A30A1C28A0198229210850
:10030000A3001D2821080F39A5000A22A300A30E6F
:10031000A50A0A22A3061D28230AA900A0199329C9
:100320002108A3001D2821080F39A5000A22A300D7
:10033000A30EA50A0A22A3061D282908A3001D282A
:10040000A0302507831684008312240883168000F9
:1004100083120800A0302507831684000008831289
:1004200008000310230D031783128D0083168C130D
:100430000C1483120C080313A00003178D0A8316F3
:0E0440008C130C1483120C080313A100080087
:02400E00723FFF
:00000001FF
